{
  "contractName": "TimeLockedTransfer",
  "abi": [
    {
      "inputs": [
        {
          "internalType": "address",
          "name": "sender",
          "type": "address"
        },
        {
          "internalType": "address",
          "name": "receiver",
          "type": "address"
        },
        {
          "internalType": "uint256",
          "name": "lockTimeSec",
          "type": "uint256"
        }
      ],
      "stateMutability": "nonpayable",
      "type": "constructor"
    },
    {
      "anonymous": false,
      "inputs": [
        {
          "indexed": false,
          "internalType": "uint256",
          "name": "amount",
          "type": "uint256"
        }
      ],
      "name": "CFXDeposit",
      "type": "event"
    },
    {
      "anonymous": false,
      "inputs": [
        {
          "indexed": false,
          "internalType": "uint256",
          "name": "amount",
          "type": "uint256"
        }
      ],
      "name": "CFXWithdraw",
      "type": "event"
    },
    {
      "anonymous": false,
      "inputs": [
        {
          "indexed": false,
          "internalType": "uint256",
          "name": "number",
          "type": "uint256"
        }
      ],
      "name": "Cancel",
      "type": "event"
    },
    {
      "anonymous": false,
      "inputs": [
        {
          "indexed": false,
          "internalType": "uint256",
          "name": "amount",
          "type": "uint256"
        }
      ],
      "name": "CoinDeposit",
      "type": "event"
    },
    {
      "anonymous": false,
      "inputs": [
        {
          "indexed": false,
          "internalType": "uint256",
          "name": "amount",
          "type": "uint256"
        }
      ],
      "name": "CoinWithdraw",
      "type": "event"
    },
    {
      "inputs": [
        {
          "internalType": "uint256",
          "name": "",
          "type": "uint256"
        }
      ],
      "name": "contracts",
      "outputs": [
        {
          "internalType": "address",
          "name": "",
          "type": "address"
        }
      ],
      "stateMutability": "view",
      "type": "function"
    },
    {
      "inputs": [],
      "name": "balance",
      "outputs": [
        {
          "internalType": "uint256",
          "name": "",
          "type": "uint256"
        }
      ],
      "stateMutability": "view",
      "type": "function"
    },
    {
      "inputs": [],
      "name": "depositCFX",
      "outputs": [],
      "stateMutability": "payable",
      "type": "function"
    },
    {
      "inputs": [],
      "name": "withdrawCFX",
      "outputs": [],
      "stateMutability": "nonpayable",
      "type": "function"
    },
    {
      "inputs": [
        {
          "internalType": "address",
          "name": "coinContract",
          "type": "address"
        }
      ],
      "name": "depositCoin",
      "outputs": [],
      "stateMutability": "payable",
      "type": "function"
    },
    {
      "inputs": [
        {
          "internalType": "address",
          "name": "coinContract",
          "type": "address"
        }
      ],
      "name": "withdrawCoin",
      "outputs": [],
      "stateMutability": "nonpayable",
      "type": "function"
    },
    {
      "inputs": [],
      "name": "cancel",
      "outputs": [],
      "stateMutability": "nonpayable",
      "type": "function"
    }
  ],
  "bytecode": "0x608060405234801561001057600080fd5b50604051610e1c380380610e1c8339818101604052606081101561003357600080fd5b81019080805190602001909291908051906020019092919080519060200190929190505050826000806101000a81548173ffffffffffffffffffffffffffffffffffffffff021916908373ffffffffffffffffffffffffffffffffffffffff16021790555081600160006101000a81548173ffffffffffffffffffffffffffffffffffffffff021916908373ffffffffffffffffffffffffffffffffffffffff160217905550804201600381905550505050610d28806100f46000396000f3fe6080604052600436106100705760003560e01c8063ace9fc721161004e578063ace9fc7214610142578063b69ef8a81461014c578063cbd6e8f414610177578063ea8a1af0146101bb57610070565b8063474da79a146100755780635a73928f146100da578063942bff401461012b575b600080fd5b34801561008157600080fd5b506100ae6004803603602081101561009857600080fd5b81019080803590602001909291905050506101d2565b604051808273ffffffffffffffffffffffffffffffffffffffff16815260200191505060405180910390f35b3480156100e657600080fd5b50610129600480360360208110156100fd57600080fd5b81019080803573ffffffffffffffffffffffffffffffffffffffff16906020019092919050505061020e565b005b34801561013757600080fd5b506101406104b9565b005b61014a61067a565b005b34801561015857600080fd5b5061016161077a565b6040518082815260200191505060405180910390f35b6101b96004803603602081101561018d57600080fd5b81019080803573ffffffffffffffffffffffffffffffffffffffff169060200190929190505050610782565b005b3480156101c757600080fd5b506101d06109a4565b005b600281815481106101df57fe5b906000526020600020016000915054906101000a900473ffffffffffffffffffffffffffffffffffffffff1681565b600160009054906101000a900473ffffffffffffffffffffffffffffffffffffffff1673ffffffffffffffffffffffffffffffffffffffff163373ffffffffffffffffffffffffffffffffffffffff16146102d1576040517f08c379a00000000000000000000000000000000000000000000000000000000081526004018080602001828103825260118152602001807f544c543a20556e617574686f72697a656400000000000000000000000000000081525060200191505060405180910390fd5b600354421015610349576040517f08c379a000000000000000000000000000000000000000000000000000000000815260040180806020018281038252601a8152602001807f544c543a2054696d656c6f636b207374696c6c2061637469766500000000000081525060200191505060405180910390fd5b600081905060008173ffffffffffffffffffffffffffffffffffffffff166370a08231306040518263ffffffff1660e01b8152600401808273ffffffffffffffffffffffffffffffffffffffff16815260200191505060206040518083038186803b1580156103b757600080fd5b505afa1580156103cb573d6000803e3d6000fd5b505050506040513d60208110156103e157600080fd5b810190808051906020019092919050505090508173ffffffffffffffffffffffffffffffffffffffff1663a9059cbb33836040518363ffffffff1660e01b8152600401808373ffffffffffffffffffffffffffffffffffffffff16815260200182815260200192505050600060405180830381600087803b15801561046557600080fd5b505af1158015610479573d6000803e3d6000fd5b505050507fd8e8e8ccd653ffffda824722cb6ff3e5835b0ccf2b3b84d0b4032ca3a86be3f7816040518082815260200191505060405180910390a1505050565b600160009054906101000a900473ffffffffffffffffffffffffffffffffffffffff1673ffffffffffffffffffffffffffffffffffffffff163373ffffffffffffffffffffffffffffffffffffffff161461057c576040517f08c379a00000000000000000000000000000000000000000000000000000000081526004018080602001828103825260118152602001807f544c543a20556e617574686f72697a656400000000000000000000000000000081525060200191505060405180910390fd5b6003544210156105f4576040517f08c379a000000000000000000000000000000000000000000000000000000000815260040180806020018281038252601a8152602001807f544c543a2054696d656c6f636b207374696c6c2061637469766500000000000081525060200191505060405180910390fd5b60004790503373ffffffffffffffffffffffffffffffffffffffff166108fc829081150290604051600060405180830381858888f1935050505015801561063f573d6000803e3d6000fd5b507f6400ad2d60a3c5702c087cab650381d2ff340530edc7530233c9e43b691d9de4816040518082815260200191505060405180910390a150565b60008054906101000a900473ffffffffffffffffffffffffffffffffffffffff1673ffffffffffffffffffffffffffffffffffffffff163373ffffffffffffffffffffffffffffffffffffffff161461073b576040517f08c379a00000000000000000000000000000000000000000000000000000000081526004018080602001828103825260118152602001807f544c543a20556e617574686f72697a656400000000000000000000000000000081525060200191505060405180910390fd5b60003490507fd0fa4031906f4049cf9870c5754892a7d9c81efa87e38e958c787574978857c5816040518082815260200191505060405180910390a150565b600047905090565b60008054906101000a900473ffffffffffffffffffffffffffffffffffffffff1673ffffffffffffffffffffffffffffffffffffffff163373ffffffffffffffffffffffffffffffffffffffff1614610843576040517f08c379a00000000000000000000000000000000000000000000000000000000081526004018080602001828103825260118152602001807f544c543a20556e617574686f72697a656400000000000000000000000000000081525060200191505060405180910390fd5b6002819080600181540180825580915050600190039060005260206000200160009091909190916101000a81548173ffffffffffffffffffffffffffffffffffffffff021916908373ffffffffffffffffffffffffffffffffffffffff16021790555060008190506000670de0b6b3a764000034816108be57fe5b0490508173ffffffffffffffffffffffffffffffffffffffff16635698755a3330846040518463ffffffff1660e01b8152600401808473ffffffffffffffffffffffffffffffffffffffff1681526020018373ffffffffffffffffffffffffffffffffffffffff1681526020018281526020019350505050600060405180830381600087803b15801561095057600080fd5b505af1158015610964573d6000803e3d6000fd5b505050507f181c916f9f392803e17c6b0631872659ab4889bbe2e21034fa8242e108888155816040518082815260200191505060405180910390a1505050565b60008054906101000a900473ffffffffffffffffffffffffffffffffffffffff1673ffffffffffffffffffffffffffffffffffffffff163373ffffffffffffffffffffffffffffffffffffffff1614610a65576040517f08c379a00000000000000000000000000000000000000000000000000000000081526004018080602001828103825260118152602001807f544c543a20556e617574686f72697a656400000000000000000000000000000081525060200191505060405180910390fd5b6003544210610abf576040517f08c379a0000000000000000000000000000000000000000000000000000000008152600401808060200182810382526021815260200180610cd26021913960400191505060405180910390fd5b60004790503373ffffffffffffffffffffffffffffffffffffffff166108fc829081150290604051600060405180830381858888f19350505050158015610b0a573d6000803e3d6000fd5b5060005b600280549050811015610c9657600060028281548110610b2a57fe5b9060005260206000200160009054906101000a900473ffffffffffffffffffffffffffffffffffffffff16905060008190508073ffffffffffffffffffffffffffffffffffffffff166370a08231306040518263ffffffff1660e01b8152600401808273ffffffffffffffffffffffffffffffffffffffff16815260200191505060206040518083038186803b158015610bc357600080fd5b505afa158015610bd7573d6000803e3d6000fd5b505050506040513d6020811015610bed57600080fd5b810190808051906020019092919050505093508073ffffffffffffffffffffffffffffffffffffffff1663a9059cbb33866040518363ffffffff1660e01b8152600401808373ffffffffffffffffffffffffffffffffffffffff16815260200182815260200192505050600060405180830381600087803b158015610c7157600080fd5b505af1158015610c85573d6000803e3d6000fd5b505050505050600181019050610b0e565b507f8bf30e7ff26833413be5f69e1d373744864d600b664204b4a2f9844a8eedb9ed816040518082815260200191505060405180910390a15056fe544c543a2054696d656c6f636b206973206e6f206c6f6e67657220616374697665a2646970667358221220e004ab3cc6082a9636971ff7925558a18206d8ae515f97f7c8aff3efc0d34a0c64736f6c63430007030033",
  "immutableReferences": {},
  "source": "// SPDX-License-Identifier: GPL-3.0-or-later\n\npragma solidity ^0.7.1;\n\nimport \"./IStandardCoin.sol\";\n\ncontract TimeLockedTransfer {\n    address _sender;\n    address _receiver;\n    address [] public contracts;\n    uint256 _unlockAfter; // point in time\n\n    event CFXDeposit(uint256 amount);\n    event CFXWithdraw(uint256 amount);\n    event CoinDeposit(uint256 amount);\n    event CoinWithdraw(uint256 amount);\n    event Cancel(uint256 number);\n\n    constructor(address sender, address receiver, uint256 lockTimeSec) {\n        _sender = sender;\n        _receiver = receiver;\n\n        // current time: `block.timestamp` (`now` in older versions)\n        _unlockAfter = block.timestamp + lockTimeSec;\n    }\n\n    function balance() external view returns (uint256) {\n        return address(this).balance;\n    }\n\n    function depositCFX() external payable {\n        require(msg.sender == _sender, \"TLT: Unauthorized\");\n        uint256 amount = msg.value;\n        emit CFXDeposit(amount);\n    }\n\n    function withdrawCFX() external {\n        require(msg.sender == _receiver, \"TLT: Unauthorized\");\n        require(block.timestamp >= _unlockAfter, \"TLT: Timelock still active\");\n        uint256 amount = address(this).balance;\n        msg.sender.transfer(amount);\n        emit CFXWithdraw(amount);\n    }\n    \n    function depositCoin(address coinContract) external payable {\n        require(msg.sender == _sender, \"TLT: Unauthorized\");\n        \n        contracts.push(coinContract);\n\n        IStandardCoin coin = IStandardCoin(coinContract);\n        uint256 amount = (uint256)(msg.value / 1000000000000000000);\n        coin.transfer2(msg.sender, address(this), amount);\n        emit CoinDeposit(amount);\n    }\n\n    function withdrawCoin(address coinContract) external {\n        // Alice will deposit coins to this contract through the contract\n        // Bob can withdraw after the deadline by passing the coin contract address\n        require(msg.sender == _receiver, \"TLT: Unauthorized\");\n        require(block.timestamp >= _unlockAfter, \"TLT: Timelock still active\");\n\n        IStandardCoin coin = IStandardCoin(coinContract);\n        uint256 amount = coin.balanceOf(address(this));\n        coin.transfer(msg.sender, amount);\n        emit CoinWithdraw(amount);\n    }\n\n    function cancel() external{\n        require(msg.sender == _sender, \"TLT: Unauthorized\");\n        require(block.timestamp < _unlockAfter, \"TLT: Timelock is no longer active\");\n        \n        // cancel CFX\n        uint256 amount = address(this).balance;\n        msg.sender.transfer(amount);\n\n        // cancel other coins\n        for(uint i = 0; i < contracts.length; i = i + 1){\n            address coinContract = contracts[i];\n            IStandardCoin coin = IStandardCoin(coinContract);\n            amount = coin.balanceOf(address(this));\n            coin.transfer(msg.sender, amount);\n        }\n\n        emit Cancel(amount);\n    }\n}",
  "sourcePath": "/c/Users/px150/Desktop/Blockchain_UMA/Homework/homework 3/cfx-lecture-5/contracts/TimeLockedTransfer.sol",
  "compiler": {
    "name": "solc",
    "version": "0.7.3+commit.9bfce1f6.Linux.g++"
  },
  "schemaVersion": "3.2.0",
  "updatedAt": "2020-11-06T17:43:39.089Z",
  "devdoc": {
    "kind": "dev",
    "methods": {},
    "version": 1
  },
  "userdoc": {
    "kind": "user",
    "methods": {},
    "version": 1
  }
}