{
  "contractName": "TransferFactory",
  "abi": [
    {
      "inputs": [],
      "stateMutability": "nonpayable",
      "type": "constructor"
    },
    {
      "anonymous": false,
      "inputs": [
        {
          "indexed": false,
          "internalType": "uint256",
          "name": "id",
          "type": "uint256"
        }
      ],
      "name": "NewTransfer",
      "type": "event"
    },
    {
      "inputs": [
        {
          "internalType": "uint256",
          "name": "",
          "type": "uint256"
        }
      ],
      "name": "transfers",
      "outputs": [
        {
          "internalType": "address",
          "name": "",
          "type": "address"
        }
      ],
      "stateMutability": "view",
      "type": "function"
    },
    {
      "inputs": [
        {
          "internalType": "address",
          "name": "sender",
          "type": "address"
        },
        {
          "internalType": "address",
          "name": "recipient",
          "type": "address"
        },
        {
          "internalType": "uint256",
          "name": "lock_time_s",
          "type": "uint256"
        }
      ],
      "name": "create",
      "outputs": [],
      "stateMutability": "nonpayable",
      "type": "function"
    }
  ],
  "bytecode": "0x608060405234801561001057600080fd5b506110ba806100206000396000f3fe608060405234801561001057600080fd5b50600436106100365760003560e01c80639377d7111461003b578063ffe5725f14610093575b600080fd5b6100676004803603602081101561005157600080fd5b8101908080359060200190929190505050610101565b604051808273ffffffffffffffffffffffffffffffffffffffff16815260200191505060405180910390f35b6100ff600480360360608110156100a957600080fd5b81019080803573ffffffffffffffffffffffffffffffffffffffff169060200190929190803573ffffffffffffffffffffffffffffffffffffffff1690602001909291908035906020019092919050505061013d565b005b6000818154811061010e57fe5b906000526020600020016000915054906101000a900473ffffffffffffffffffffffffffffffffffffffff1681565b600083838360405161014e9061025b565b808473ffffffffffffffffffffffffffffffffffffffff1681526020018373ffffffffffffffffffffffffffffffffffffffff1681526020018281526020019350505050604051809103906000f0801580156101ae573d6000803e3d6000fd5b5090506000808054905090506000829080600181540180825580915050600190039060005260206000200160009091909190916101000a81548173ffffffffffffffffffffffffffffffffffffffff021916908373ffffffffffffffffffffffffffffffffffffffff1602179055507fc17c01dbb46124edf53e9495d5ae2c7b35e8adbfc20eb7782294d13b6e1cf05d816040518082815260200191505060405180910390a15050505050565b610e1c806102698339019056fe608060405234801561001057600080fd5b50604051610e1c380380610e1c8339818101604052606081101561003357600080fd5b81019080805190602001909291908051906020019092919080519060200190929190505050826000806101000a81548173ffffffffffffffffffffffffffffffffffffffff021916908373ffffffffffffffffffffffffffffffffffffffff16021790555081600160006101000a81548173ffffffffffffffffffffffffffffffffffffffff021916908373ffffffffffffffffffffffffffffffffffffffff160217905550804201600381905550505050610d28806100f46000396000f3fe6080604052600436106100705760003560e01c8063ace9fc721161004e578063ace9fc7214610142578063b69ef8a81461014c578063cbd6e8f414610177578063ea8a1af0146101bb57610070565b8063474da79a146100755780635a73928f146100da578063942bff401461012b575b600080fd5b34801561008157600080fd5b506100ae6004803603602081101561009857600080fd5b81019080803590602001909291905050506101d2565b604051808273ffffffffffffffffffffffffffffffffffffffff16815260200191505060405180910390f35b3480156100e657600080fd5b50610129600480360360208110156100fd57600080fd5b81019080803573ffffffffffffffffffffffffffffffffffffffff16906020019092919050505061020e565b005b34801561013757600080fd5b506101406104b9565b005b61014a61067a565b005b34801561015857600080fd5b5061016161077a565b6040518082815260200191505060405180910390f35b6101b96004803603602081101561018d57600080fd5b81019080803573ffffffffffffffffffffffffffffffffffffffff169060200190929190505050610782565b005b3480156101c757600080fd5b506101d06109a4565b005b600281815481106101df57fe5b906000526020600020016000915054906101000a900473ffffffffffffffffffffffffffffffffffffffff1681565b600160009054906101000a900473ffffffffffffffffffffffffffffffffffffffff1673ffffffffffffffffffffffffffffffffffffffff163373ffffffffffffffffffffffffffffffffffffffff16146102d1576040517f08c379a00000000000000000000000000000000000000000000000000000000081526004018080602001828103825260118152602001807f544c543a20556e617574686f72697a656400000000000000000000000000000081525060200191505060405180910390fd5b600354421015610349576040517f08c379a000000000000000000000000000000000000000000000000000000000815260040180806020018281038252601a8152602001807f544c543a2054696d656c6f636b207374696c6c2061637469766500000000000081525060200191505060405180910390fd5b600081905060008173ffffffffffffffffffffffffffffffffffffffff166370a08231306040518263ffffffff1660e01b8152600401808273ffffffffffffffffffffffffffffffffffffffff16815260200191505060206040518083038186803b1580156103b757600080fd5b505afa1580156103cb573d6000803e3d6000fd5b505050506040513d60208110156103e157600080fd5b810190808051906020019092919050505090508173ffffffffffffffffffffffffffffffffffffffff1663a9059cbb33836040518363ffffffff1660e01b8152600401808373ffffffffffffffffffffffffffffffffffffffff16815260200182815260200192505050600060405180830381600087803b15801561046557600080fd5b505af1158015610479573d6000803e3d6000fd5b505050507fd8e8e8ccd653ffffda824722cb6ff3e5835b0ccf2b3b84d0b4032ca3a86be3f7816040518082815260200191505060405180910390a1505050565b600160009054906101000a900473ffffffffffffffffffffffffffffffffffffffff1673ffffffffffffffffffffffffffffffffffffffff163373ffffffffffffffffffffffffffffffffffffffff161461057c576040517f08c379a00000000000000000000000000000000000000000000000000000000081526004018080602001828103825260118152602001807f544c543a20556e617574686f72697a656400000000000000000000000000000081525060200191505060405180910390fd5b6003544210156105f4576040517f08c379a000000000000000000000000000000000000000000000000000000000815260040180806020018281038252601a8152602001807f544c543a2054696d656c6f636b207374696c6c2061637469766500000000000081525060200191505060405180910390fd5b60004790503373ffffffffffffffffffffffffffffffffffffffff166108fc829081150290604051600060405180830381858888f1935050505015801561063f573d6000803e3d6000fd5b507f6400ad2d60a3c5702c087cab650381d2ff340530edc7530233c9e43b691d9de4816040518082815260200191505060405180910390a150565b60008054906101000a900473ffffffffffffffffffffffffffffffffffffffff1673ffffffffffffffffffffffffffffffffffffffff163373ffffffffffffffffffffffffffffffffffffffff161461073b576040517f08c379a00000000000000000000000000000000000000000000000000000000081526004018080602001828103825260118152602001807f544c543a20556e617574686f72697a656400000000000000000000000000000081525060200191505060405180910390fd5b60003490507fd0fa4031906f4049cf9870c5754892a7d9c81efa87e38e958c787574978857c5816040518082815260200191505060405180910390a150565b600047905090565b60008054906101000a900473ffffffffffffffffffffffffffffffffffffffff1673ffffffffffffffffffffffffffffffffffffffff163373ffffffffffffffffffffffffffffffffffffffff1614610843576040517f08c379a00000000000000000000000000000000000000000000000000000000081526004018080602001828103825260118152602001807f544c543a20556e617574686f72697a656400000000000000000000000000000081525060200191505060405180910390fd5b6002819080600181540180825580915050600190039060005260206000200160009091909190916101000a81548173ffffffffffffffffffffffffffffffffffffffff021916908373ffffffffffffffffffffffffffffffffffffffff16021790555060008190506000670de0b6b3a764000034816108be57fe5b0490508173ffffffffffffffffffffffffffffffffffffffff16635698755a3330846040518463ffffffff1660e01b8152600401808473ffffffffffffffffffffffffffffffffffffffff1681526020018373ffffffffffffffffffffffffffffffffffffffff1681526020018281526020019350505050600060405180830381600087803b15801561095057600080fd5b505af1158015610964573d6000803e3d6000fd5b505050507f181c916f9f392803e17c6b0631872659ab4889bbe2e21034fa8242e108888155816040518082815260200191505060405180910390a1505050565b60008054906101000a900473ffffffffffffffffffffffffffffffffffffffff1673ffffffffffffffffffffffffffffffffffffffff163373ffffffffffffffffffffffffffffffffffffffff1614610a65576040517f08c379a00000000000000000000000000000000000000000000000000000000081526004018080602001828103825260118152602001807f544c543a20556e617574686f72697a656400000000000000000000000000000081525060200191505060405180910390fd5b6003544210610abf576040517f08c379a0000000000000000000000000000000000000000000000000000000008152600401808060200182810382526021815260200180610cd26021913960400191505060405180910390fd5b60004790503373ffffffffffffffffffffffffffffffffffffffff166108fc829081150290604051600060405180830381858888f19350505050158015610b0a573d6000803e3d6000fd5b5060005b600280549050811015610c9657600060028281548110610b2a57fe5b9060005260206000200160009054906101000a900473ffffffffffffffffffffffffffffffffffffffff16905060008190508073ffffffffffffffffffffffffffffffffffffffff166370a08231306040518263ffffffff1660e01b8152600401808273ffffffffffffffffffffffffffffffffffffffff16815260200191505060206040518083038186803b158015610bc357600080fd5b505afa158015610bd7573d6000803e3d6000fd5b505050506040513d6020811015610bed57600080fd5b810190808051906020019092919050505093508073ffffffffffffffffffffffffffffffffffffffff1663a9059cbb33866040518363ffffffff1660e01b8152600401808373ffffffffffffffffffffffffffffffffffffffff16815260200182815260200192505050600060405180830381600087803b158015610c7157600080fd5b505af1158015610c85573d6000803e3d6000fd5b505050505050600181019050610b0e565b507f8bf30e7ff26833413be5f69e1d373744864d600b664204b4a2f9844a8eedb9ed816040518082815260200191505060405180910390a15056fe544c543a2054696d656c6f636b206973206e6f206c6f6e67657220616374697665a2646970667358221220e004ab3cc6082a9636971ff7925558a18206d8ae515f97f7c8aff3efc0d34a0c64736f6c63430007030033a26469706673582212208856f01c278dc905ef9b40e7fc6d3bf731c1128d2fd9288f32db180a35f7aeb164736f6c63430007030033",
  "immutableReferences": {},
  "source": "// SPDX-License-Identifier: GPL-3.0-or-later\n\npragma solidity ^0.7.1;\n\nimport \"./TimeLockedTransfer.sol\";\n\ncontract TransferFactory {\n    address[] public transfers;\n\n    event NewTransfer(uint256 id);\n\n    constructor() {\n        // EMPTY\n    }\n\n    function create(address sender, address recipient, uint256 lock_time_s) external {\n        TimeLockedTransfer tlt = new TimeLockedTransfer(sender, recipient, lock_time_s);\n        uint256 id = transfers.length;\n        transfers.push(address(tlt));\n        emit NewTransfer(id);\n    }\n}",
  "sourcePath": "/c/Users/px150/Desktop/Blockchain_UMA/Homework/homework 3/cfx-lecture-5/contracts/TransferFactory.sol",
  "compiler": {
    "name": "solc",
    "version": "0.7.3+commit.9bfce1f6.Linux.g++"
  },
  "schemaVersion": "3.2.0",
  "updatedAt": "2020-11-06T17:43:39.125Z",
  "devdoc": {
    "kind": "dev",
    "methods": {},
    "version": 1
  },
  "userdoc": {
    "kind": "user",
    "methods": {},
    "version": 1
  }
}